:100000000C9462000C948A000C948A000C948A0070
:100010000C948A000C948A000C948A000C948A0038
:100020000C948A000C948A000C948A000C948A0028
:100030000C948A000C948A000C948A000C948A0018
:100040000C94A6040C948A000C948A000C948A00E8
:100050000C948A000C948A000C948A000C948A00F8
:100060000C948A000C948A000000000024002700F1
:100070002A0000000000250028002B0000000000DE
:1000800023002600290004040404040404040202DA
:100090000202020203030303030301020408102007
:1000A0004080010204081020010204081020000012
:1000B0000008000201000003040700000000000027
:1000C0000000170611241FBECFEFD8E0DEBFCDBF62
:1000D00011E0A0E0B1E0E4E5FDE002C005900D9282
:1000E000A039B107D9F722E0A0E9B1E001C01D9223
:1000F000A233B207E1F710E0C2E6D0E004C02197D6
:10010000FE010E94A206C136D107C9F70E94F00481
:100110000C94A8060C940000833081F028F4813000
:1001200099F08230A1F008958730A9F08830B9F0B5
:100130008430D1F4809180008F7D03C08091800055
:100140008F7780938000089584B58F7702C084B53F
:100150008F7D84BD08958091B0008F7703C080911A
:10016000B0008F7D8093B0000895CF93DF93282F48
:1001700030E0F901E255FF4F8491F901E656FF4F57
:10018000D491F901EA57FF4FC491CC2391F081112A
:100190000E948C00EC2FF0E0EE0FFF1FE458FF4FA1
:1001A000A591B491EC91ED2381E090E021F480E001
:1001B00002C080E090E0DF91CF9108951F93CF932C
:1001C000DF93282F30E0F901E255FF4F8491F901C8
:1001D000E656FF4FD491F901EA57FF4FC491CC2363
:1001E000C9F0162F81110E948C00EC2FF0E0EE0F69
:1001F000FF1FEE58FF4FA591B4918FB7F8941111DE
:1002000005C09C91ED2FE095E92302C0EC91ED2B08
:10021000EC938FBFDF91CF911F910895CF93DF9320
:1002200090E0FC01E656FF4F2491FC01EA57FF4F96
:100230008491882361F190E0880F991FFC01E859AF
:10024000FF4FC591D491FC01EE58FF4FA591B49199
:10025000611109C09FB7F894888120958223888313
:10026000EC912E230BC0623061F49FB7F894388173
:10027000822F809583238883EC912E2B2C939FBF14
:1002800006C08FB7F894E8812E2B28838FBFDF91AB
:10029000CF9108952F923F924F925F926F927F92EB
:1002A0008F929F92AF92BF92CF92DF92EF92FF9286
:1002B0000F931F93CF93DF9300D000D0CDB7DEB75D
:1002C0002C0183E0660F771F8A95E1F76201C60E65
:1002D000D71ED6015096AC907B01BFEFEB1AFB0AFC
:1002E000E40CF51CF701B0888B010E5F1F4F040D65
:1002F000151DD80150965C91CB010396FC01E40DCD
:10030000F51DFC83EB8340899B012C5F3F4FC901A6
:10031000840D951D9A838983DC0150963C91CB0115
:1003200005964201880E991EF4012089019632013A
:10033000680E791ED30150969C91695F7F4F460EDF
:10034000571EF20170891601F0E52F0E311CC72EE1
:10035000CC1CCC24CC1C8A2D8078EC2DE82B8B2D4A
:100360008078C82ED12CD594C794CE2AE52FE0787A
:10037000F0E0F595E795F595E795EC29842F8078E1
:10038000C82ED12CB3E0D594C794BA95E1F7CE2A04
:10039000E32FE078F0E084E0F595E7958A95E1F7C2
:1003A000EC29822F8078C82ED12C65E0D594C79493
:1003B0006A95E1F7CE2AE92FE078F0E0A6E0F5951E
:1003C000E795AA95E1F7EC29D101EC931701B0E587
:1003D0002B0E311C8B2D8074EA2DE074EE0FE82B70
:1003E000852F8074E82EF12CF594E794EE2AE42F03
:1003F000E074F0E0F595E795F595E795EE29832F04
:100400008074C82ED12C63E0D594C7946A95E1F727
:10041000EC29822F8074E82EF12CF4E0F594E79417
:10042000FA95E1F7EE2AE92FE074F0E0A5E0F59502
:10043000E795AA95E1F7EE2976FB882780F9E82B66
:10044000D101EC936801B0E5CB0ED11CE52FE07231
:100450008A2D8072E82EEE0CEE0CEE2A8B2D807227
:10046000880FE82AE42FE072F0E0F595E795EE2991
:10047000032F0072E02EF12CF594E794F594E794A5
:10048000EE29022F007210E083E0159507958A95FA
:10049000E1F70E2BE92FE072F0E064E0F595E795C7
:1004A0006A95E1F7E02B75FB882780F9E82BD601E8
:1004B000EC93EB80FC80B0E5EB0EF11C042F007197
:1004C0008A2D8071880F880F880F082B8B2D8071E3
:1004D000880F880F082B852F8071880F802B032FA2
:1004E000007110E015950795E82FE02B822F8071A1
:1004F000A82FB0E0B595A795B595A795AE2BE92F98
:10050000E071F0E0B3E0F595E795BA95E1F7EA2BF5
:1005100074FB882780F9E82BD701EC93A981BA8175
:10052000A05BBF4FE32FE8708A2D88708295807F93
:100530008E2B6B2D6870660F660F660F862B652FEE
:100540006870660F660F862B642F6870660F862BA7
:10055000E22FE870F0E0F595E795E82B892F887099
:10056000082F10E01595079515950795E02B73FB5F
:10057000662760F9E62BEC93D401A05BBF4F622F96
:100580006470EA2DE470E295EE0FE07EE62B8B2D91
:1005900084708295807FE82B852F8470880F880F68
:1005A000880FE82B842F8470880F880FE82B832F07
:1005B0008470880F6E2F682B892F8470E82FF0E0ED
:1005C000F595E795E62B72FB882780F9E82BEC93ED
:1005D000D301A05BBF4F892F82706A2D6270629534
:1005E000660F660F607C682B8B2D82708295880F5A
:1005F000807E682B852F82708295807F682B842F68
:100600008270880F880F880F682B832F8270880F65
:10061000880F682BE22FE270EE0F6E2B71FB88279C
:1006200080F9682B6C93F201E05BFF4F7170A79427
:10063000AA24A794A72A8B2D8170B82EB294BB0C44
:10064000BB0C00ECB022AB2851705295550F507E78
:100650005A2941704295407F452B3170330F330F3B
:10066000330F342B2170220F220F232B9170990FFF
:10067000922B90830F900F900F900F90DF91CF915E
:100680001F910F91FF90EF90DF90CF90BF90AF90B0
:100690009F908F907F906F905F904F903F902F90A2
:1006A00008952F923F924F925F926F927F928F9216
:1006B0009F92AF92BF92CF92DF92EF92FF920F93F1
:1006C0001F93CF93DF9300D0CDB7DEB78C01498362
:1006D0002A83660F771FF801EA56FF4FE080F1800A
:1006E000EE0CFF1CF801CF01801B910B8E159F05AE
:1006F00014F41192F8CF8981F801E60FF71F818376
:100700008A818083580184E9A80EB11C60E0F5015C
:1007100080810E94DE00E00EF11E4801F2E98F0E9A
:10072000911C380180E9680E711CC701801B910B78
:100730001816190624F5F701C2907F01F4013080E4
:10074000F301208087E0482E512CD12CB601042CD7
:1007500002C0759567950A94E2F761707727822D3C
:100760000E94DE0061E0832D0E94DE0060E0832DA8
:100770000E94DE00F1E04F1A510840F7D6CF61E049
:10078000F50180810F900F90DF91CF911F910F9114
:10079000FF90EF90DF90CF90BF90AF909F908F90A1
:1007A0007F906F905F904F903F902F900C94DE0061
:1007B000CF93DF93E62FF0E0E05FFE4F2081FC0156
:1007C000E756FE4F208B309131023323C1F060E0B9
:1007D00070E089E991E00E944A01C1E0D0E0FE01A9
:1007E000E851FE4F20814C2F60E070E089E991E0F4
:1007F0000E9451032196C930D10589F70AC041E012
:10080000480F60E070E089E991E0DF91CF910C94AE
:100810005103DF91CF910895CF93DF93E62FF0E05E
:10082000E05FFE4F2081FC01E756FE4F208B3091A8
:1008300031023323C1F060E070E089E991E00E9469
:100840004A01C1E0D0E0FE01E851FE4F20814C2F6B
:1008500060E070E089E991E00E9451032196C9307F
:10086000D10589F70AC041E0480F60E070E089E9EE
:1008700091E0DF91CF910C945103DF91CF910895D6
:10088000AF92BF92CF92DF92EF92FF920F931F939E
:10089000CF93DF931F92CDB7DEB777FD4BC0FC013E
:1008A000EA56FF4F20813181621773070CF042C076
:1008B0008B0123E0000F111F2A95E1F720E030E0C3
:1008C0006C01C00ED11EF601E20FF31F108A2F5FDC
:1008D0003F4F28303105B9F77B015C01FC01E85638
:1008E000FF4F80818823B1F0C5010E944A01005B5F
:1008F0001F4F0A0D1B1D31E0F80121918F01432F7D
:10090000B701C50139830E94510339813F5F3930F6
:1009100099F710C001E010E0F601E00FF11F278504
:10092000402FB701C5010E9451030F5F1F4F0930CF
:10093000110591F70F90DF91CF911F910F91FF90CB
:10094000EF90DF90CF90BF90AF9008951F920F92DD
:100950000FB60F9211242F933F938F939F93AF93D2
:10096000BF938091950190919601A0919701B091CC
:1009700098013091940123E0230F2D3720F4019644
:10098000A11DB11D05C026E8230F0296A11DB11DB2
:10099000209394018093950190939601A0939701E1
:1009A000B09398018091900190919101A091920152
:1009B000B09193010196A11DB11D80939001909378
:1009C0009101A0939201B0939301BF91AF919F9138
:1009D0008F913F912F910F900FBE0F901F90189500
:1009E000789484B5826084BD84B5816084BD85B50A
:1009F000826085BD85B5816085BD80916E00816016
:100A000080936E00109281008091810082608093BB
:100A100081008091810081608093810080918000BD
:100A20008160809380008091B10084608093B100E8
:100A30008091B00081608093B00080917A008460E2
:100A400080937A0080917A00826080937A0080910E
:100A50007A00816080937A0080917A008068809328
:100A60007A001092C10080912F02909130021816E6
:100A7000190644F421E04CE060E070E089E991E07F
:100A80000E94510380912F0290913002181619068E
:100A900044F425E04AE060E070E089E991E00E94DA
:100AA000510360E070E089E991E00E94400461E058
:100AB00089E00E940E0161E089E00E94DE0060E0B2
:100AC0008CE00E940E0161E08AE00E940E0160E06D
:100AD0008AE00E94DE0060E08BE00E940E0160E090
:100AE00087E00E940E0101E010E084E6D82E90E03D
:100AF000E92E90E0F92E60E089E00E94DE0061E0DE
:100B000089E00E94DE00D7E0C0E08BE00E94B500E3
:100B1000892B39F0C8010D2E01C0880F0A94EAF71D
:100B2000C82B61E08AE00E94DE0060E08AE00E945B
:100B3000DE00DD2311F0D150E8CF87E00E94B50040
:100B400060E070E0892B09F444C089E991E00E94DB
:100B500040048C2F6D2D0E949606882369F0209109
:100B60002F02309130021216130644F4682F82E0EF
:100B700090E00E94D80302C020E001C021E08C2F49
:100B80006D2D0E949606C92F892F6AE00E94960655
:100B9000811102C0222361F020912F023091300296
:100BA000121613062CF4682F81E090E00E94D803FF
:100BB00080912F0290913002181619068CF58C2F17
:100BC0006AE00E949606692F80E090E00E94D803B8
:100BD00027C089E991E00E944004EC2FEF70F0E01B
:100BE000E050FF4F608180912F02909130021816E3
:100BF000190624F480E090E00E940C04C295CF70A6
:100C0000EC2FF0E0E050FF4F608180912F02909137
:100C100030021816190624F481E090E00E940C04BA
:100C2000E114F10409F467CF0E94000064CFCF9370
:100C3000DF93C3E0D0E0D0932A02C093290282E080
:100C400090E090932C0280932B0284E090E09093AC
:100C50002E0280932D0281E090E0909330028093E9
:100C60002F028093310261E083E00E940E0161E077
:100C700080912B020E940E0161E080912D020E9462
:100C80000E0161E080912D020E94DE00D0932A02C5
:100C9000C0932902E9EEF1E0DF01A054B1091C92F2
:100CA000119282E0E932F807B9F7C0E0D0E0809114
:100CB0002F0290913002C817D907ACF520E04FE021
:100CC000BE0189E991E00E945103D7FD0EC08091D9
:100CD0002F0290913002C817D9073CF427E04BE06F
:100CE000BE0189E991E00E94510320E049E0BE0184
:100CF00089E991E00E945103BE0189E991E00E94D7
:100D00004004D7FD0EC080912F0290913002C81789
:100D1000D9073CF420E04CE0BE0189E991E00E9453
:100D200051032196C4CFDF91CF910895991B79E0AB
:100D300004C0991F961708F0961B881F7A95C9F76B
:100D400080950895EE0FFF1F0590F491E02D099412
:040D5000F894FFCF45
:100D5400303132333435363738396162636465662D
:100D64007E306D79335B5F707F7B771F0D3D4F471E
:100D7400000000000000000000000000000000006F
:100D8400000000000000000000000000800180005E
:100D94007E306D79335B5F707F7B00000000000064
:100DA40000771F0D3D4F4700370000000E00000084
:100DB40067000000000000000000000000000008C0
:100DC40000771F0D3D4F4700370000000E00000064
:100DD40067000000000000000000000000000000A8
:00000001FF
